{
  "_format": "hh-sol-artifact-1",
  "contractName": "NFTMarketplace",
  "sourceName": "contracts/NFTMarketplace.sol",
  "abi": [
    {
      "inputs": [],
      "stateMutability": "nonpayable",
      "type": "constructor"
    },
    {
      "anonymous": false,
      "inputs": [
        {
          "indexed": true,
          "internalType": "address",
          "name": "owner",
          "type": "address"
        },
        {
          "indexed": true,
          "internalType": "address",
          "name": "approved",
          "type": "address"
        },
        {
          "indexed": true,
          "internalType": "uint256",
          "name": "tokenId",
          "type": "uint256"
        }
      ],
      "name": "Approval",
      "type": "event"
    },
    {
      "anonymous": false,
      "inputs": [
        {
          "indexed": true,
          "internalType": "address",
          "name": "owner",
          "type": "address"
        },
        {
          "indexed": true,
          "internalType": "address",
          "name": "operator",
          "type": "address"
        },
        {
          "indexed": false,
          "internalType": "bool",
          "name": "approved",
          "type": "bool"
        }
      ],
      "name": "ApprovalForAll",
      "type": "event"
    },
    {
      "anonymous": false,
      "inputs": [
        {
          "indexed": false,
          "internalType": "uint256",
          "name": "_fromTokenId",
          "type": "uint256"
        },
        {
          "indexed": false,
          "internalType": "uint256",
          "name": "_toTokenId",
          "type": "uint256"
        }
      ],
      "name": "BatchMetadataUpdate",
      "type": "event"
    },
    {
      "anonymous": false,
      "inputs": [
        {
          "indexed": false,
          "internalType": "uint256",
          "name": "_tokenId",
          "type": "uint256"
        }
      ],
      "name": "MetadataUpdate",
      "type": "event"
    },
    {
      "anonymous": false,
      "inputs": [
        {
          "indexed": true,
          "internalType": "uint256",
          "name": "tokenId",
          "type": "uint256"
        },
        {
          "indexed": false,
          "internalType": "address",
          "name": "owner",
          "type": "address"
        },
        {
          "indexed": false,
          "internalType": "address",
          "name": "seller",
          "type": "address"
        },
        {
          "indexed": false,
          "internalType": "uint256",
          "name": "price",
          "type": "uint256"
        },
        {
          "indexed": false,
          "internalType": "bool",
          "name": "currentlyListed",
          "type": "bool"
        }
      ],
      "name": "TokenListedSuccess",
      "type": "event"
    },
    {
      "anonymous": false,
      "inputs": [
        {
          "indexed": true,
          "internalType": "address",
          "name": "from",
          "type": "address"
        },
        {
          "indexed": true,
          "internalType": "address",
          "name": "to",
          "type": "address"
        },
        {
          "indexed": true,
          "internalType": "uint256",
          "name": "tokenId",
          "type": "uint256"
        }
      ],
      "name": "Transfer",
      "type": "event"
    },
    {
      "inputs": [
        {
          "internalType": "address",
          "name": "to",
          "type": "address"
        },
        {
          "internalType": "uint256",
          "name": "tokenId",
          "type": "uint256"
        }
      ],
      "name": "approve",
      "outputs": [],
      "stateMutability": "nonpayable",
      "type": "function"
    },
    {
      "inputs": [
        {
          "internalType": "address",
          "name": "owner",
          "type": "address"
        }
      ],
      "name": "balanceOf",
      "outputs": [
        {
          "internalType": "uint256",
          "name": "",
          "type": "uint256"
        }
      ],
      "stateMutability": "view",
      "type": "function"
    },
    {
      "inputs": [
        {
          "internalType": "string",
          "name": "tokenURI",
          "type": "string"
        },
        {
          "internalType": "uint256",
          "name": "price",
          "type": "uint256"
        }
      ],
      "name": "createToken",
      "outputs": [
        {
          "internalType": "uint256",
          "name": "",
          "type": "uint256"
        }
      ],
      "stateMutability": "payable",
      "type": "function"
    },
    {
      "inputs": [
        {
          "internalType": "uint256",
          "name": "tokenId",
          "type": "uint256"
        }
      ],
      "name": "executeSale",
      "outputs": [],
      "stateMutability": "payable",
      "type": "function"
    },
    {
      "inputs": [],
      "name": "getAllNFTs",
      "outputs": [
        {
          "components": [
            {
              "internalType": "uint256",
              "name": "tokenId",
              "type": "uint256"
            },
            {
              "internalType": "address payable",
              "name": "owner",
              "type": "address"
            },
            {
              "internalType": "address payable",
              "name": "seller",
              "type": "address"
            },
            {
              "internalType": "uint256",
              "name": "price",
              "type": "uint256"
            },
            {
              "internalType": "bool",
              "name": "currentlyListed",
              "type": "bool"
            }
          ],
          "internalType": "struct NFTMarketplace.ListedToken[]",
          "name": "",
          "type": "tuple[]"
        }
      ],
      "stateMutability": "view",
      "type": "function"
    },
    {
      "inputs": [
        {
          "internalType": "uint256",
          "name": "tokenId",
          "type": "uint256"
        }
      ],
      "name": "getApproved",
      "outputs": [
        {
          "internalType": "address",
          "name": "",
          "type": "address"
        }
      ],
      "stateMutability": "view",
      "type": "function"
    },
    {
      "inputs": [],
      "name": "getCurrentToken",
      "outputs": [
        {
          "internalType": "uint256",
          "name": "",
          "type": "uint256"
        }
      ],
      "stateMutability": "view",
      "type": "function"
    },
    {
      "inputs": [],
      "name": "getLatestIdToListedToken",
      "outputs": [
        {
          "components": [
            {
              "internalType": "uint256",
              "name": "tokenId",
              "type": "uint256"
            },
            {
              "internalType": "address payable",
              "name": "owner",
              "type": "address"
            },
            {
              "internalType": "address payable",
              "name": "seller",
              "type": "address"
            },
            {
              "internalType": "uint256",
              "name": "price",
              "type": "uint256"
            },
            {
              "internalType": "bool",
              "name": "currentlyListed",
              "type": "bool"
            }
          ],
          "internalType": "struct NFTMarketplace.ListedToken",
          "name": "",
          "type": "tuple"
        }
      ],
      "stateMutability": "view",
      "type": "function"
    },
    {
      "inputs": [],
      "name": "getListPrice",
      "outputs": [
        {
          "internalType": "uint256",
          "name": "",
          "type": "uint256"
        }
      ],
      "stateMutability": "view",
      "type": "function"
    },
    {
      "inputs": [
        {
          "internalType": "uint256",
          "name": "tokenId",
          "type": "uint256"
        }
      ],
      "name": "getListedTokenForId",
      "outputs": [
        {
          "components": [
            {
              "internalType": "uint256",
              "name": "tokenId",
              "type": "uint256"
            },
            {
              "internalType": "address payable",
              "name": "owner",
              "type": "address"
            },
            {
              "internalType": "address payable",
              "name": "seller",
              "type": "address"
            },
            {
              "internalType": "uint256",
              "name": "price",
              "type": "uint256"
            },
            {
              "internalType": "bool",
              "name": "currentlyListed",
              "type": "bool"
            }
          ],
          "internalType": "struct NFTMarketplace.ListedToken",
          "name": "",
          "type": "tuple"
        }
      ],
      "stateMutability": "view",
      "type": "function"
    },
    {
      "inputs": [],
      "name": "getMyNFTs",
      "outputs": [
        {
          "components": [
            {
              "internalType": "uint256",
              "name": "tokenId",
              "type": "uint256"
            },
            {
              "internalType": "address payable",
              "name": "owner",
              "type": "address"
            },
            {
              "internalType": "address payable",
              "name": "seller",
              "type": "address"
            },
            {
              "internalType": "uint256",
              "name": "price",
              "type": "uint256"
            },
            {
              "internalType": "bool",
              "name": "currentlyListed",
              "type": "bool"
            }
          ],
          "internalType": "struct NFTMarketplace.ListedToken[]",
          "name": "",
          "type": "tuple[]"
        }
      ],
      "stateMutability": "view",
      "type": "function"
    },
    {
      "inputs": [
        {
          "internalType": "address",
          "name": "owner",
          "type": "address"
        },
        {
          "internalType": "address",
          "name": "operator",
          "type": "address"
        }
      ],
      "name": "isApprovedForAll",
      "outputs": [
        {
          "internalType": "bool",
          "name": "",
          "type": "bool"
        }
      ],
      "stateMutability": "view",
      "type": "function"
    },
    {
      "inputs": [],
      "name": "name",
      "outputs": [
        {
          "internalType": "string",
          "name": "",
          "type": "string"
        }
      ],
      "stateMutability": "view",
      "type": "function"
    },
    {
      "inputs": [
        {
          "internalType": "uint256",
          "name": "tokenId",
          "type": "uint256"
        }
      ],
      "name": "ownerOf",
      "outputs": [
        {
          "internalType": "address",
          "name": "",
          "type": "address"
        }
      ],
      "stateMutability": "view",
      "type": "function"
    },
    {
      "inputs": [
        {
          "internalType": "uint256",
          "name": "tokenId",
          "type": "uint256"
        },
        {
          "internalType": "uint256",
          "name": "newPrice",
          "type": "uint256"
        }
      ],
      "name": "resellToken",
      "outputs": [],
      "stateMutability": "payable",
      "type": "function"
    },
    {
      "inputs": [
        {
          "internalType": "address",
          "name": "from",
          "type": "address"
        },
        {
          "internalType": "address",
          "name": "to",
          "type": "address"
        },
        {
          "internalType": "uint256",
          "name": "tokenId",
          "type": "uint256"
        }
      ],
      "name": "safeTransferFrom",
      "outputs": [],
      "stateMutability": "nonpayable",
      "type": "function"
    },
    {
      "inputs": [
        {
          "internalType": "address",
          "name": "from",
          "type": "address"
        },
        {
          "internalType": "address",
          "name": "to",
          "type": "address"
        },
        {
          "internalType": "uint256",
          "name": "tokenId",
          "type": "uint256"
        },
        {
          "internalType": "bytes",
          "name": "data",
          "type": "bytes"
        }
      ],
      "name": "safeTransferFrom",
      "outputs": [],
      "stateMutability": "nonpayable",
      "type": "function"
    },
    {
      "inputs": [
        {
          "internalType": "address",
          "name": "operator",
          "type": "address"
        },
        {
          "internalType": "bool",
          "name": "approved",
          "type": "bool"
        }
      ],
      "name": "setApprovalForAll",
      "outputs": [],
      "stateMutability": "nonpayable",
      "type": "function"
    },
    {
      "inputs": [
        {
          "internalType": "bytes4",
          "name": "interfaceId",
          "type": "bytes4"
        }
      ],
      "name": "supportsInterface",
      "outputs": [
        {
          "internalType": "bool",
          "name": "",
          "type": "bool"
        }
      ],
      "stateMutability": "view",
      "type": "function"
    },
    {
      "inputs": [],
      "name": "symbol",
      "outputs": [
        {
          "internalType": "string",
          "name": "",
          "type": "string"
        }
      ],
      "stateMutability": "view",
      "type": "function"
    },
    {
      "inputs": [
        {
          "internalType": "uint256",
          "name": "tokenId",
          "type": "uint256"
        }
      ],
      "name": "tokenURI",
      "outputs": [
        {
          "internalType": "string",
          "name": "",
          "type": "string"
        }
      ],
      "stateMutability": "view",
      "type": "function"
    },
    {
      "inputs": [
        {
          "internalType": "address",
          "name": "from",
          "type": "address"
        },
        {
          "internalType": "address",
          "name": "to",
          "type": "address"
        },
        {
          "internalType": "uint256",
          "name": "tokenId",
          "type": "uint256"
        }
      ],
      "name": "transferFrom",
      "outputs": [],
      "stateMutability": "nonpayable",
      "type": "function"
    },
    {
      "inputs": [
        {
          "internalType": "uint256",
          "name": "_listPrice",
          "type": "uint256"
        }
      ],
      "name": "updateListPrice",
      "outputs": [],
      "stateMutability": "payable",
      "type": "function"
    }
  ],
  "bytecode": "0x6080604052662386f26fc10000600a553480156200001c57600080fd5b50604080518082018252600e81526d4e46544d61726b6574706c61636560901b6020808301918252835180850190945260048452634e46544d60e01b9084015281519192916200006f91600091620000a0565b50805162000085906001906020840190620000a0565b5050600980546001600160a01b031916331790555062000183565b828054620000ae9062000146565b90600052602060002090601f016020900481019282620000d257600085556200011d565b82601f10620000ed57805160ff19168380011785556200011d565b828001600101855582156200011d579182015b828111156200011d57825182559160200191906001019062000100565b506200012b9291506200012f565b5090565b5b808211156200012b576000815560010162000130565b600181811c908216806200015b57607f821691505b602082108114156200017d57634e487b7160e01b600052602260045260246000fd5b50919050565b61230580620001936000396000f3fe6080604052600436106101405760003560e01c80638e264590116100b6578063c87b56dd1161006f578063c87b56dd14610372578063d1a88ae514610392578063e0391b09146103a7578063e219fc75146103bc578063e985e9c5146103cf578063ef2d17461461041857600080fd5b80638e264590146102ca57806395d89b41146102f75780639b1225c41461030c578063a22cb4651461031f578063b88d4fde1461033f578063c322579c1461035f57600080fd5b806342842e0e1161010857806342842e0e14610216578063629cb2e4146102365780636352211e1461025857806368f1945f1461027857806370a082311461029757806372b3b620146102b757600080fd5b806301ffc9a71461014557806306fdde031461017a578063081812fc1461019c578063095ea7b3146101d457806323b872dd146101f6575b600080fd5b34801561015157600080fd5b50610165610160366004611f01565b61042d565b60405190151581526020015b60405180910390f35b34801561018657600080fd5b5061018f610458565b60405161017191906120ee565b3480156101a857600080fd5b506101bc6101b7366004611f8f565b6104ea565b6040516001600160a01b039091168152602001610171565b3480156101e057600080fd5b506101f46101ef366004611ed8565b610511565b005b34801561020257600080fd5b506101f4610211366004611dea565b61062c565b34801561022257600080fd5b506101f4610231366004611dea565b61065d565b34801561024257600080fd5b5061024b610678565b60405161017191906120a0565b34801561026457600080fd5b506101bc610273366004611f8f565b6108bd565b34801561028457600080fd5b50600a545b604051908152602001610171565b3480156102a357600080fd5b506102896102b2366004611d9e565b61091d565b6102896102c5366004611f39565b6109a3565b3480156102d657600080fd5b506102ea6102e5366004611f8f565b6109e5565b60405161017191906121e5565b34801561030357600080fd5b5061018f610a4f565b6101f461031a366004611f8f565b610a5e565b34801561032b57600080fd5b506101f461033a366004611e9e565b610b9a565b34801561034b57600080fd5b506101f461035a366004611e25565b610ba9565b6101f461036d366004611f8f565b610bdb565b34801561037e57600080fd5b5061018f61038d366004611f8f565b610c46565b34801561039e57600080fd5b506102ea610d57565b3480156103b357600080fd5b5061024b610dce565b6101f46103ca366004611fa7565b610f15565b3480156103db57600080fd5b506101656103ea366004611db8565b6001600160a01b03918216600090815260056020908152604080832093909416825291909152205460ff1690565b34801561042457600080fd5b50610289611100565b60006001600160e01b03198216632483248360e11b1480610452575061045282611110565b92915050565b60606000805461046790612237565b80601f016020809104026020016040519081016040528092919081815260200182805461049390612237565b80156104e05780601f106104b5576101008083540402835291602001916104e0565b820191906000526020600020905b8154815290600101906020018083116104c357829003601f168201915b5050505050905090565b60006104f582611160565b506000908152600460205260409020546001600160a01b031690565b600061051c826108bd565b9050806001600160a01b0316836001600160a01b0316141561058f5760405162461bcd60e51b815260206004820152602160248201527f4552433732313a20617070726f76616c20746f2063757272656e74206f776e656044820152603960f91b60648201526084015b60405180910390fd5b336001600160a01b03821614806105ab57506105ab81336103ea565b61061d5760405162461bcd60e51b815260206004820152603d60248201527f4552433732313a20617070726f76652063616c6c6572206973206e6f7420746f60448201527f6b656e206f776e6572206f7220617070726f76656420666f7220616c6c0000006064820152608401610586565b61062783836111c2565b505050565b6106363382611230565b6106525760405162461bcd60e51b815260040161058690612101565b6106278383836112ae565b61062783838360405180602001604052806000815250610ba9565b6060600061068560075490565b905060008060005b8381101561071d5733600b60006106a58460016121f3565b81526020810191909152604001600020600101546001600160a01b031614806106f8575033600b60006106d98460016121f3565b81526020810191909152604001600020600201546001600160a01b0316145b1561070b576107086001846121f3565b92505b8061071581612272565b91505061068d565b5060008267ffffffffffffffff81111561074757634e487b7160e01b600052604160045260246000fd5b60405190808252806020026020018201604052801561078057816020015b61076d611c45565b8152602001906001900390816107655790505b50905060005b848110156108b45733600b600061079e8460016121f3565b81526020810191909152604001600020600101546001600160a01b031614806107f1575033600b60006107d28460016121f3565b81526020810191909152604001600020600201546001600160a01b0316145b156108a25760006108038260016121f3565b6000818152600b6020908152604091829020825160a0810184528154815260018201546001600160a01b039081169382019390935260028201549092169282019290925260038201546060820152600482015460ff16151560808201528551929350909185908790811061088757634e487b7160e01b600052603260045260246000fd5b602090810291909101015261089d6001866121f3565b945050505b806108ac81612272565b915050610786565b50949350505050565b6000818152600260205260408120546001600160a01b0316806104525760405162461bcd60e51b8152602060048201526018602482015277115490cdcc8c4e881a5b9d985b1a59081d1bdad95b88125160421b6044820152606401610586565b60006001600160a01b0382166109875760405162461bcd60e51b815260206004820152602960248201527f4552433732313a2061646472657373207a65726f206973206e6f7420612076616044820152683634b21037bbb732b960b91b6064820152608401610586565b506001600160a01b031660009081526003602052604090205490565b60006109b3600780546001019055565b60006109be60075490565b90506109ca3382611412565b6109d4818561142c565b6109de81846114fe565b9392505050565b6109ed611c45565b506000908152600b6020908152604091829020825160a0810184528154815260018201546001600160a01b03908116938201939093526002820154909216928201929092526003820154606082015260049091015460ff161515608082015290565b60606001805461046790612237565b6000818152600b6020526040902060038101546002909101546001600160a01b0316348214610acf5760405162461bcd60e51b815260206004820152601f60248201527f506c65617365207375626d69742074686520636f7272656374207072696365006044820152606401610586565b6000838152600b6020526040902060048101805460ff1916600117905560020180546001600160a01b03191633179055610b0d600880546001019055565b610b183033856112ae565b610b223084610511565b600954600a546040516001600160a01b039092169181156108fc0291906000818181858888f19350505050158015610b5e573d6000803e3d6000fd5b506040516001600160a01b038216903480156108fc02916000818181858888f19350505050158015610b94573d6000803e3d6000fd5b50505050565b610ba5338383611682565b5050565b610bb33383611230565b610bcf5760405162461bcd60e51b815260040161058690612101565b610b9484848484611751565b6009546001600160a01b03163314610c415760405162461bcd60e51b815260206004820152602360248201527f4f6e6c79206f776e65722063616e20757064617465206c697374696e6720707260448201526269636560e81b6064820152608401610586565b600a55565b6060610c5182611160565b60008281526006602052604081208054610c6a90612237565b80601f0160208091040260200160405190810160405280929190818152602001828054610c9690612237565b8015610ce35780601f10610cb857610100808354040283529160200191610ce3565b820191906000526020600020905b815481529060010190602001808311610cc657829003601f168201915b505050505090506000610d0160408051602081019091526000815290565b9050805160001415610d14575092915050565b815115610d46578082604051602001610d2e929190612034565b60405160208183030381529060405292505050919050565b610d4f84611784565b949350505050565b610d5f611c45565b6000610d6a60075490565b6000908152600b6020908152604091829020825160a0810184528154815260018201546001600160a01b03908116938201939093526002820154909216928201929092526003820154606082015260049091015460ff161515608082015292915050565b60606000610ddb60075490565b905060008167ffffffffffffffff811115610e0657634e487b7160e01b600052604160045260246000fd5b604051908082528060200260200182016040528015610e3f57816020015b610e2c611c45565b815260200190600190039081610e245790505b5090506000805b83811015610f0c576000610e5b8260016121f3565b6000818152600b6020908152604091829020825160a0810184528154815260018201546001600160a01b039081169382019390935260028201549092169282019290925260038201546060820152600482015460ff161515608082015286519293509091869086908110610edf57634e487b7160e01b600052603260045260246000fd5b6020908102919091010152610ef56001856121f3565b935050508080610f0490612272565b915050610e46565b50909392505050565b6000828152600260205260409020546001600160a01b0316610f705760405162461bcd60e51b8152602060048201526014602482015273151bdad95b88191bd95cc81b9bdd08195e1a5cdd60621b6044820152606401610586565b33610f7a836108bd565b6001600160a01b031614610fdc5760405162461bcd60e51b815260206004820152602360248201527f4f6e6c7920746865206f776e65722063616e20726573656c6c2074686520746f60448201526235b2b760e91b6064820152608401610586565b6000828152600b602052604090206004015460ff1661103d5760405162461bcd60e51b815260206004820152601d60248201527f546f6b656e206973206e6f742063757272656e746c79206c69737465640000006044820152606401610586565b600a54341461108e5760405162461bcd60e51b815260206004820152601760248201527f496e636f7272656374206c697374696e672070726963650000000000000000006044820152606401610586565b6000828152600b60205260409020600301819055817f9339409317fd01fabff48b703019016f49159bacc801ae872d2ca637d226e4c06110cd826108bd565b604080516001600160a01b0390921682523360208301528101849052600160608201526080015b60405180910390a25050565b600061110b60075490565b905090565b60006001600160e01b031982166380ac58cd60e01b148061114157506001600160e01b03198216635b5e139f60e01b145b8061045257506301ffc9a760e01b6001600160e01b0319831614610452565b6000818152600260205260409020546001600160a01b03166111bf5760405162461bcd60e51b8152602060048201526018602482015277115490cdcc8c4e881a5b9d985b1a59081d1bdad95b88125160421b6044820152606401610586565b50565b600081815260046020526040902080546001600160a01b0319166001600160a01b03841690811790915581906111f7826108bd565b6001600160a01b03167f8c5be1e5ebec7d5bd14f71427d1e84f3dd0314c0f7b2291e5b200ac8c7c3b92560405160405180910390a45050565b60008061123c836108bd565b9050806001600160a01b0316846001600160a01b0316148061128357506001600160a01b0380821660009081526005602090815260408083209388168352929052205460ff165b80610d4f5750836001600160a01b031661129c846104ea565b6001600160a01b031614949350505050565b826001600160a01b03166112c1826108bd565b6001600160a01b0316146112e75760405162461bcd60e51b8152600401610586906121a0565b6001600160a01b0382166113495760405162461bcd60e51b8152602060048201526024808201527f4552433732313a207472616e7366657220746f20746865207a65726f206164646044820152637265737360e01b6064820152608401610586565b826001600160a01b031661135c826108bd565b6001600160a01b0316146113825760405162461bcd60e51b8152600401610586906121a0565b600081815260046020908152604080832080546001600160a01b03199081169091556001600160a01b0387811680865260038552838620805460001901905590871680865283862080546001019055868652600290945282852080549092168417909155905184937fddf252ad1be2c89b69c2b068fc378daa952ba7f163c4a11628f55a4df523b3ef91a4505050565b610ba58282604051806020016040528060008152506117f7565b6000828152600260205260409020546001600160a01b03166114a75760405162461bcd60e51b815260206004820152602e60248201527f45524337323155524953746f726167653a2055524920736574206f66206e6f6e60448201526d32bc34b9ba32b73a103a37b5b2b760911b6064820152608401610586565b600082815260066020908152604090912082516114c692840190611c73565b506040518281527ff8e1a15aba9398e019f0b49df1a4fde98ee17ae345cb5f6b5e2c27f5033e8ce79060200160405180910390a15050565b600a54341461154f5760405162461bcd60e51b815260206004820152601d60248201527f506c656173652073656e742074686520636f72726563742070726963650000006044820152606401610586565b6000811161159f5760405162461bcd60e51b815260206004820152601d60248201527f4d616b6520737572652070726963652069736e74206e656761746976650000006044820152606401610586565b6040805160a081018252838152306020808301828152338486018181526060860188815260016080880181815260008c8152600b9097529890952096518755925193860180546001600160a01b039586166001600160a01b03199182161790915590516002870180549190951691161790925551600384015592516004909201805492151560ff199093169290921790915561163c9190846112ae565b604080513081523360208201529081018290526001606082015282907f9339409317fd01fabff48b703019016f49159bacc801ae872d2ca637d226e4c0906080016110f4565b816001600160a01b0316836001600160a01b031614156116e45760405162461bcd60e51b815260206004820152601960248201527f4552433732313a20617070726f766520746f2063616c6c6572000000000000006044820152606401610586565b6001600160a01b03838116600081815260056020908152604080832094871680845294825291829020805460ff191686151590811790915591519182527f17307eab39ab6107e8899845ad3d59bd9653f200f220920489ca2b5937696c31910160405180910390a3505050565b61175c8484846112ae565b6117688484848461182a565b610b945760405162461bcd60e51b81526004016105869061214e565b606061178f82611160565b60006117a660408051602081019091526000815290565b905060008151116117c657604051806020016040528060008152506109de565b806117d084611937565b6040516020016117e1929190612034565b6040516020818303038152906040529392505050565b61180183836119e2565b61180e600084848461182a565b6106275760405162461bcd60e51b81526004016105869061214e565b60006001600160a01b0384163b1561192c57604051630a85bd0160e11b81526001600160a01b0385169063150b7a029061186e903390899088908890600401612063565b602060405180830381600087803b15801561188857600080fd5b505af19250505080156118b8575060408051601f3d908101601f191682019092526118b591810190611f1d565b60015b611912573d8080156118e6576040519150601f19603f3d011682016040523d82523d6000602084013e6118eb565b606091505b50805161190a5760405162461bcd60e51b81526004016105869061214e565b805181602001fd5b6001600160e01b031916630a85bd0160e11b149050610d4f565b506001949350505050565b6060600061194483611b6d565b600101905060008167ffffffffffffffff81111561197257634e487b7160e01b600052604160045260246000fd5b6040519080825280601f01601f19166020018201604052801561199c576020820181803683370190505b5090508181016020015b600019016f181899199a1a9b1b9c1cb0b131b232b360811b600a86061a8153600a85049450846119d5576119da565b6119a6565b509392505050565b6001600160a01b038216611a385760405162461bcd60e51b815260206004820181905260248201527f4552433732313a206d696e7420746f20746865207a65726f20616464726573736044820152606401610586565b6000818152600260205260409020546001600160a01b031615611a9d5760405162461bcd60e51b815260206004820152601c60248201527f4552433732313a20746f6b656e20616c7265616479206d696e746564000000006044820152606401610586565b6000818152600260205260409020546001600160a01b031615611b025760405162461bcd60e51b815260206004820152601c60248201527f4552433732313a20746f6b656e20616c7265616479206d696e746564000000006044820152606401610586565b6001600160a01b038216600081815260036020908152604080832080546001019055848352600290915280822080546001600160a01b0319168417905551839291907fddf252ad1be2c89b69c2b068fc378daa952ba7f163c4a11628f55a4df523b3ef908290a45050565b60008072184f03e93ff9f4daa797ed6e38ed64bf6a1f0160401b8310611bac5772184f03e93ff9f4daa797ed6e38ed64bf6a1f0160401b830492506040015b6d04ee2d6d415b85acef81000000008310611bd8576d04ee2d6d415b85acef8100000000830492506020015b662386f26fc100008310611bf657662386f26fc10000830492506010015b6305f5e1008310611c0e576305f5e100830492506008015b6127108310611c2257612710830492506004015b60648310611c34576064830492506002015b600a83106104525760010192915050565b6040805160a08101825260008082526020820181905291810182905260608101829052608081019190915290565b828054611c7f90612237565b90600052602060002090601f016020900481019282611ca15760008555611ce7565b82601f10611cba57805160ff1916838001178555611ce7565b82800160010185558215611ce7579182015b82811115611ce7578251825591602001919060010190611ccc565b50611cf3929150611cf7565b5090565b5b80821115611cf35760008155600101611cf8565b600067ffffffffffffffff80841115611d2757611d276122a3565b604051601f8501601f19908116603f01168101908282118183101715611d4f57611d4f6122a3565b81604052809350858152868686011115611d6857600080fd5b858560208301376000602087830101525050509392505050565b80356001600160a01b0381168114611d9957600080fd5b919050565b600060208284031215611daf578081fd5b6109de82611d82565b60008060408385031215611dca578081fd5b611dd383611d82565b9150611de160208401611d82565b90509250929050565b600080600060608486031215611dfe578081fd5b611e0784611d82565b9250611e1560208501611d82565b9150604084013590509250925092565b60008060008060808587031215611e3a578081fd5b611e4385611d82565b9350611e5160208601611d82565b925060408501359150606085013567ffffffffffffffff811115611e73578182fd5b8501601f81018713611e83578182fd5b611e9287823560208401611d0c565b91505092959194509250565b60008060408385031215611eb0578182fd5b611eb983611d82565b915060208301358015158114611ecd578182fd5b809150509250929050565b60008060408385031215611eea578182fd5b611ef383611d82565b946020939093013593505050565b600060208284031215611f12578081fd5b81356109de816122b9565b600060208284031215611f2e578081fd5b81516109de816122b9565b60008060408385031215611f4b578182fd5b823567ffffffffffffffff811115611f61578283fd5b8301601f81018513611f71578283fd5b611f8085823560208401611d0c565b95602094909401359450505050565b600060208284031215611fa0578081fd5b5035919050565b60008060408385031215611fb9578182fd5b50508035926020909101359150565b60008151808452611fe081602086016020860161220b565b601f01601f19169290920160200192915050565b805182526020808201516001600160a01b039081169184019190915260408083015190911690830152606080820151908301526080908101511515910152565b6000835161204681846020880161220b565b83519083019061205a81836020880161220b565b01949350505050565b6001600160a01b038581168252841660208201526040810183905260806060820181905260009061209690830184611fc8565b9695505050505050565b6020808252825182820181905260009190848201906040850190845b818110156120e2576120cf838551611ff4565b9284019260a092909201916001016120bc565b50909695505050505050565b6020815260006109de6020830184611fc8565b6020808252602d908201527f4552433732313a2063616c6c6572206973206e6f7420746f6b656e206f776e6560408201526c1c881bdc88185c1c1c9bdd9959609a1b606082015260800190565b60208082526032908201527f4552433732313a207472616e7366657220746f206e6f6e20455243373231526560408201527131b2b4bb32b91034b6b83632b6b2b73a32b960711b606082015260800190565b60208082526025908201527f4552433732313a207472616e736665722066726f6d20696e636f72726563742060408201526437bbb732b960d91b606082015260800190565b60a081016104528284611ff4565b600082198211156122065761220661228d565b500190565b60005b8381101561222657818101518382015260200161220e565b83811115610b945750506000910152565b600181811c9082168061224b57607f821691505b6020821081141561226c57634e487b7160e01b600052602260045260246000fd5b50919050565b60006000198214156122865761228661228d565b5060010190565b634e487b7160e01b600052601160045260246000fd5b634e487b7160e01b600052604160045260246000fd5b6001600160e01b0319811681146111bf57600080fdfea2646970667358221220d00daabf1f68efa171773a3689bf84dcfebe40782cc4342562b00df2bdd124e964736f6c63430008040033",
  "linkReferences": {},
  "deployedLinkReferences": {}
}